{
  "contractName": "Market",
  "abi": [
    {
      "constant": true,
      "inputs": [],
      "name": "trustedVault",
      "outputs": [
        {
          "name": "",
          "type": "address"
        }
      ],
      "payable": false,
      "stateMutability": "view",
      "type": "function"
    },
    {
      "inputs": [],
      "payable": false,
      "stateMutability": "nonpayable",
      "type": "constructor"
    },
    {
      "anonymous": false,
      "inputs": [
        {
          "indexed": false,
          "name": "_buyer",
          "type": "address"
        },
        {
          "indexed": false,
          "name": "_seller",
          "type": "address"
        },
        {
          "indexed": false,
          "name": "_stockist",
          "type": "address"
        },
        {
          "indexed": false,
          "name": "_tagId",
          "type": "uint256"
        },
        {
          "indexed": false,
          "name": "_price",
          "type": "uint256"
        },
        {
          "indexed": false,
          "name": "_sellerShare",
          "type": "uint256"
        },
        {
          "indexed": false,
          "name": "_stockistShare",
          "type": "uint256"
        }
      ],
      "name": "LogProductBought",
      "type": "event"
    },
    {
      "constant": false,
      "inputs": [
        {
          "name": "_signature",
          "type": "bytes"
        },
        {
          "name": "_tagId",
          "type": "uint256"
        },
        {
          "name": "_seller",
          "type": "address"
        },
        {
          "name": "_stockist",
          "type": "address"
        }
      ],
      "name": "buyProduct",
      "outputs": [],
      "payable": true,
      "stateMutability": "payable",
      "type": "function"
    },
    {
      "constant": true,
      "inputs": [
        {
          "name": "_tagId",
          "type": "uint256"
        }
      ],
      "name": "toHash",
      "outputs": [
        {
          "name": "",
          "type": "bytes32"
        }
      ],
      "payable": false,
      "stateMutability": "pure",
      "type": "function"
    }
  ],
  "bytecode": "0x608060405234801561001057600080fd5b5061001961007a565b604051809103906000f080158015610035573d6000803e3d6000fd5b506000806101000a81548173ffffffffffffffffffffffffffffffffffffffff021916908373ffffffffffffffffffffffffffffffffffffffff16021790555061008a565b60405161085180610acc83390190565b610a33806100996000396000f300608060405260043610610057576000357c0100000000000000000000000000000000000000000000000000000000900463ffffffff168063279fdf6d1461005c57806348dd8500146100b3578063c0b52b7214610159575b600080fd5b34801561006857600080fd5b506100716101a2565b604051808273ffffffffffffffffffffffffffffffffffffffff1673ffffffffffffffffffffffffffffffffffffffff16815260200191505060405180910390f35b610157600480360381019080803590602001908201803590602001908080601f016020809104026020016040519081016040528093929190818152602001838380828437820191505050505050919291929080359060200190929190803573ffffffffffffffffffffffffffffffffffffffff169060200190929190803573ffffffffffffffffffffffffffffffffffffffff1690602001909291905050506101c7565b005b34801561016557600080fd5b5061018460048036038101908080359060200190929190505050610746565b60405180826000191660001916815260200191505060405180910390f35b6000809054906101000a900473ffffffffffffffffffffffffffffffffffffffff1681565b60008060008060003411151561026b576040517f08c379a000000000000000000000000000000000000000000000000000000000815260040180806020018281038252602c8152602001807f4974206973206e6f7420616c6c6f77656420746f2062757920612070726f647581526020017f637420706179696e6720302e000000000000000000000000000000000000000081525060400191505060405180910390fd5b86604051602001808281526020019150506040516020818303038152906040526040518082805190602001908083835b6020831015156102c0578051825260208201915060208101905060208303925061029b565b6001836020036101000a038019825116818451168082178552505050505050905001915050604051809103902093506102fc84600019166107d1565b925061031588846000191661088c90919063ffffffff16565b73ffffffffffffffffffffffffffffffffffffffff168673ffffffffffffffffffffffffffffffffffffffff161415156103b7576040517f08c379a00000000000000000000000000000000000000000000000000000000081526004018080602001828103825260198152602001807f53656c6c6572207369676e61747572652069732077726f6e670000000000000081525060200191505060405180910390fd5b6103cb60093461098490919063ffffffff16565b91506103e1600a836109bc90919063ffffffff16565b91506103f682346109d290919063ffffffff16565b90503461040c82846109eb90919063ffffffff16565b1415156104a7576040517f08c379a000000000000000000000000000000000000000000000000000000000815260040180806020018281038252603f8152602001807f53656c6c657220736861726520616e642073746f636b6973742073686172652081526020017f6973206e6f7420657175616c20746f207468652076616c756520706169642e0081525060400191505060405180910390fd5b6000809054906101000a900473ffffffffffffffffffffffffffffffffffffffff1673ffffffffffffffffffffffffffffffffffffffff1663f340fa0183886040518363ffffffff167c0100000000000000000000000000000000000000000000000000000000028152600401808273ffffffffffffffffffffffffffffffffffffffff1673ffffffffffffffffffffffffffffffffffffffff1681526020019150506000604051808303818588803b15801561056357600080fd5b505af1158015610577573d6000803e3d6000fd5b50505050506000809054906101000a900473ffffffffffffffffffffffffffffffffffffffff1673ffffffffffffffffffffffffffffffffffffffff1663f340fa0182876040518363ffffffff167c0100000000000000000000000000000000000000000000000000000000028152600401808273ffffffffffffffffffffffffffffffffffffffff1673ffffffffffffffffffffffffffffffffffffffff1681526020019150506000604051808303818588803b15801561063857600080fd5b505af115801561064c573d6000803e3d6000fd5b50505050507f7f02d5a31ac72da6741bf92e8cd609561b81a4838a5f78351b3da44f2135eebb3387878a348787604051808873ffffffffffffffffffffffffffffffffffffffff1673ffffffffffffffffffffffffffffffffffffffff1681526020018773ffffffffffffffffffffffffffffffffffffffff1673ffffffffffffffffffffffffffffffffffffffff1681526020018673ffffffffffffffffffffffffffffffffffffffff1673ffffffffffffffffffffffffffffffffffffffff16815260200185815260200184815260200183815260200182815260200197505050505050505060405180910390a15050505050505050565b600081604051602001808281526020019150506040516020818303038152906040526040518082805190602001908083835b60208310151561079d5780518252602082019150602081019050602083039250610778565b6001836020036101000a03801982511681845116808217855250505050505090500191505060405180910390209050919050565b60008160405160200180807f19457468657265756d205369676e6564204d6573736167653a0a333200000000815250601c0182600019166000191681526020019150506040516020818303038152906040526040518082805190602001908083835b6020831015156108585780518252602082019150602081019050602083039250610833565b6001836020036101000a03801982511681845116808217855250505050505090500191505060405180910390209050919050565b600080600080604185511415156108a6576000935061097b565b6020850151925060408501519150606085015160001a9050601b8160ff1610156108d157601b810190505b601b8160ff16141580156108e95750601c8160ff1614155b156108f7576000935061097b565b600186828585604051600081526020016040526040518085600019166000191681526020018460ff1660ff1681526020018360001916600019168152602001826000191660001916815260200194505050505060206040516020810390808403906000865af115801561096e573d6000803e3d6000fd5b5050506020604051035193505b50505092915050565b60008083141561099757600090506109b6565b81830290508183828115156109a857fe5b041415156109b257fe5b8090505b92915050565b600081838115156109c957fe5b04905092915050565b60008282111515156109e057fe5b818303905092915050565b600081830190508281101515156109fe57fe5b809050929150505600a165627a7a7230582083d418ecdd436a393d4349b3940a2ab4c1a53b0950a3dbc556450556b68ff5c400296080604052336000806101000a81548173ffffffffffffffffffffffffffffffffffffffff021916908373ffffffffffffffffffffffffffffffffffffffff1602179055506107fe806100536000396000f300608060405260043610610078576000357c0100000000000000000000000000000000000000000000000000000000900463ffffffff1680633ccfd60b1461007d578063715018a6146100945780638da5cb5b146100ab578063cb13cddb14610102578063f2fde38b14610159578063f340fa011461019c575b600080fd5b34801561008957600080fd5b506100926101d2565b005b3480156100a057600080fd5b506100a96103d5565b005b3480156100b757600080fd5b506100c06104d7565b604051808273ffffffffffffffffffffffffffffffffffffffff1673ffffffffffffffffffffffffffffffffffffffff16815260200191505060405180910390f35b34801561010e57600080fd5b50610143600480360381019080803573ffffffffffffffffffffffffffffffffffffffff1690602001909291905050506104fc565b6040518082815260200191505060405180910390f35b34801561016557600080fd5b5061019a600480360381019080803573ffffffffffffffffffffffffffffffffffffffff169060200190929190505050610514565b005b6101d0600480360381019080803573ffffffffffffffffffffffffffffffffffffffff16906020019092919050505061057b565b005b6000803391506000600160008473ffffffffffffffffffffffffffffffffffffffff1673ffffffffffffffffffffffffffffffffffffffff168152602001908152602001600020541115156102b5576040517f08c379a000000000000000000000000000000000000000000000000000000000815260040180806020018281038252602c8152602001807f5769746864726177206e6f7420616c6c6f7765642069662073656e646572206481526020017f65706f73697420697320302e000000000000000000000000000000000000000081525060400191505060405180910390fd5b600160008373ffffffffffffffffffffffffffffffffffffffff1673ffffffffffffffffffffffffffffffffffffffff1681526020019081526020016000205490506000600160008473ffffffffffffffffffffffffffffffffffffffff1673ffffffffffffffffffffffffffffffffffffffff168152602001908152602001600020819055508173ffffffffffffffffffffffffffffffffffffffff166108fc829081150290604051600060405180830381858888f19350505050158015610382573d6000803e3d6000fd5b508173ffffffffffffffffffffffffffffffffffffffff167fe0535c2eb3e1755a11a8ee1dba6e7b72ea1487e87be0d02fca7c1038eaacbd5c826040518082815260200191505060405180910390a25050565b6000809054906101000a900473ffffffffffffffffffffffffffffffffffffffff1673ffffffffffffffffffffffffffffffffffffffff163373ffffffffffffffffffffffffffffffffffffffff1614151561043057600080fd5b6000809054906101000a900473ffffffffffffffffffffffffffffffffffffffff1673ffffffffffffffffffffffffffffffffffffffff167ff8df31144d9c2f0f6b59d69b8b98abd5459d07f2742c4df920b25aae33c6482060405160405180910390a260008060006101000a81548173ffffffffffffffffffffffffffffffffffffffff021916908373ffffffffffffffffffffffffffffffffffffffff160217905550565b6000809054906101000a900473ffffffffffffffffffffffffffffffffffffffff1681565b60016020528060005260406000206000915090505481565b6000809054906101000a900473ffffffffffffffffffffffffffffffffffffffff1673ffffffffffffffffffffffffffffffffffffffff163373ffffffffffffffffffffffffffffffffffffffff1614151561056f57600080fd5b610578816106bc565b50565b6000809054906101000a900473ffffffffffffffffffffffffffffffffffffffff1673ffffffffffffffffffffffffffffffffffffffff163373ffffffffffffffffffffffffffffffffffffffff161415156105d657600080fd5b61062834600160008473ffffffffffffffffffffffffffffffffffffffff1673ffffffffffffffffffffffffffffffffffffffff168152602001908152602001600020546107b690919063ffffffff16565b600160008373ffffffffffffffffffffffffffffffffffffffff1673ffffffffffffffffffffffffffffffffffffffff168152602001908152602001600020819055508073ffffffffffffffffffffffffffffffffffffffff167f62fde48a1f1e1f53dbcc1bdf035a07786f0bb6b69ec77b897bd1f42f4cd735a3346040518082815260200191505060405180910390a250565b600073ffffffffffffffffffffffffffffffffffffffff168173ffffffffffffffffffffffffffffffffffffffff16141515156106f857600080fd5b8073ffffffffffffffffffffffffffffffffffffffff166000809054906101000a900473ffffffffffffffffffffffffffffffffffffffff1673ffffffffffffffffffffffffffffffffffffffff167f8be0079c531659141344cd1fd0a4f28419497f9722a3daafe3b4186f6b6457e060405160405180910390a3806000806101000a81548173ffffffffffffffffffffffffffffffffffffffff021916908373ffffffffffffffffffffffffffffffffffffffff16021790555050565b600081830190508281101515156107c957fe5b809050929150505600a165627a7a72305820e35c5b7509a56153154da235f33eef58eb12bd1cc9f0f01be0e5ea2e67e41cc90029",
  "source": "pragma solidity ^0.4.24;\n\nimport \"openzeppelin-solidity/contracts/ECRecovery.sol\";\nimport \"openzeppelin-solidity/contracts/math/SafeMath.sol\";\n\nimport \"./Vault.sol\";\n\ncontract Market {\n\n    using SafeMath for uint256;\n    using ECRecovery for bytes32;\n\n    Vault public trustedVault; \n\n    event LogProductBought(address _buyer, address _seller, address _stockist, uint256 _tagId, uint256 _price, uint256 _sellerShare, uint256 _stockistShare);\n\n    constructor () public \n    {\n        trustedVault = new Vault();\n    }\n\n    function buyProduct(\n        bytes _signature,\n        uint256 _tagId,\n        address _seller,\n        address _stockist)\n        public\n        payable\n    {\n        require(msg.value > 0, \"It is not allowed to buy a product paying 0.\");\n\n        //Convert to a signed message in Ethereum\n        bytes32 temp = keccak256(abi.encodePacked(_tagId));\n        bytes32 _hash = temp.toEthSignedMessageHash();\n        require(_seller == _hash.recover(_signature), \"Seller signature is wrong\");\n\n        //sends value to seller\n        uint256 sellerShare = msg.value.mul(9);\n        sellerShare = sellerShare.div(10);  // 90%\n\n        uint256 stockistShare = msg.value.sub(sellerShare); //stockist share is what remains\n\n        require(sellerShare.add(stockistShare) == msg.value, \"Seller share and stockist share is not equal to the value paid.\"); // make sure math is ok\n\n        trustedVault.deposit.value(sellerShare)(_seller);\n        trustedVault.deposit.value(stockistShare)(_stockist);\n\n        emit LogProductBought(msg.sender, _seller, _stockist, _tagId, msg.value, sellerShare, stockistShare);\n    }\n      \n    /**\n    * Hash tag id\n    */\n    function toHash(uint256 _tagId) \n        public\n        pure\n        returns (bytes32)\n    {\n        return keccak256(abi.encodePacked(_tagId));\n    }\n    \n}\n\n",
  "sourcePath": "/home/luiz/unicef/market/market/market/contracts/Market.sol",
  "compiler": {
    "name": "solc",
    "version": "0.4.24+commit.e67f0147.Emscripten.clang"
  },
  "schemaVersion": "2.0.1",
  "updatedAt": "2018-12-13T17:16:09.258Z"
}